:060000000A128A11EE2F26
:1000080070087104031909280A283928F501F50A26
:10001800182801300310F00DF10DFF3E031D0E28C6
:100028000130F4007408F507F11F1B281C280D285F
:1000380071087302031D222870087202031C252808
:1000480026282C287008F2027108031CF303F30217
:1000580001300310F10CF00CFF3E031D2D28013078
:10006800F502031D382839281C287308F100720886
:10007800F0000800F8007808031943284428582895
:10008800F31F4728482858287009FA007109FB000F
:100098007209FC007309FD00FA0A0319FB0A031927
:1000A800FC0A0319FD0A60287308FD007208FC00A9
:1000B8007108FB007008FA00730872047104700478
:1000C800031D6728682871280030F3000030F2000B
:1000D8000030F1000030F000F5289630F900812852
:1000E8000130F4007408F90701300310FD0CFC0C12
:1000F800FB0CFA0CFF3E031D7928FE307D05031D1D
:10010800862887287428A3280130F4007408F90782
:100118000130FA07003003180130FB0700300318DC
:100128000130FC07003003180130FD0701300310CF
:10013800FD0CFC0CFB0CFA0CFF3E031D9B28FF304A
:100148007D05031DA828A9288828B5280130F902AB
:100158000130F4000310FA0DFB0DFC0DFD0DF40B3E
:10016800AE28FC1BB828B928BF280230790203182A
:10017800BE28BF28AA287918C228C328CB28FF3050
:10018800FA05FF30FB057F30FC05FF30FD05031045
:10019800F90C7908F400F501F601F701183003109D
:1001A800F40DF50DF60DF70DFF3E031DD328740869
:1001B800FA047508FB047608FC047708FD0478083F
:1001C8000319E728E828ED28F31FEB28EC28ED2889
:1001D800FD177D08F3007C08F2007B08F1007A081F
:1001E800F00008000310720D730D83120313A500AD
:1001F8002508031D002901290A290030F3000030D1
:10020800F2000030F1000030F000AD290310760D47
:10021800770DA4002408031D122913291429012984
:10022800F217FF30F005FF30F105FF30F20500301E
:10023800F305F617FF30F405FF30F505FF30F60536
:100248000030F7050030A3000030A2000030A10004
:100258000030A0007F30A502A0302407F8007808FD
:10026800A5022030A4000130F8000310A00DA10D54
:10027800A20DA30DF80B392977087302031D4E2927
:1002880076087202031D4E2975087102031D4E2956
:1002980074087002031C5129522961297408F0025C
:1002A8007508031C750FF1027608031C760FF2021D
:1002B8007708031C770FF30220140130F8000310AD
:1002C800F00DF10DF20DF30DF80B63290130A402C6
:1002D800031D6F2970293729A51F732974298E29B1
:1002E8002508803A9F3E03187A297B297C29012911
:1002F80001300310A30CA20CA10CA00CFF3E031D9F
:100308007D290130F8007808A507031D8C298D295F
:100318007C29A52920302502031C93299429A0298A
:1003280001290130F8000310A00DA10DA20DA30DA5
:10033800F80B97290130A5022508031DA429A52932
:1003480095292308F3002208F2002108F10020086B
:10035800F000080083160313BB00A130AE00D92FAC
:10036800253042060319B929BA29C4293B08840053
:100378004208831380000130A5002508BB07D92F48
:10038800AF01B001200884000A168A1100200A1261
:100398008A112E3A031DD129D229172A3017013084
:1003A800A5002508A007BC01BD01062A0A30F000F7
:1003B8000030F100831603133D08F3003C08F200F7
:1003C8000A168A155F250A128A1171088316031303
:1003D800BD007008BC00200884000A168A1100209D
:1003E8000A128A11D03EA500FF3003180030A6007B
:1003F8002508BC070318BD0A2608BD070130A5005B
:100408002508A007200884000A168A1100200A126D
:100418008A110A168A15ED240A128A110318152A58
:10042800162ADA291D2ABC01BD0130161D2A3015ED
:10043800392A013083160313A007FF3020078400F0
:100448000A168A1100200A128A11C200A500A60104
:100458002608003A0319312AD92F2508003A03192A
:10046800E92F663A03191B2AD92F00302F05A5005A
:1004780007303005A600250826040319442A452A12
:10048800962F301E482A492A4D2A0630BC000030D3
:10049800BD002E08840083130008BE00840A0008EB
:1004A800BF00840A0008C000840A0008C1000430A4
:1004B800A5002508AE074108F3004008F2003F08F0
:1004C800F1003E08F0000030F7000030F600003080
:1004D800F5000030F4000A128A1503200A128A1166
:1004E8000318772A782A952A831603134108F300FC
:1004F8004008F2003F08F1003E08F0000A168A158D
:10050800D6240A128A11730883160313C1007208CD
:10051800C0007108BF007008BE000330AF0400308F
:10052800B00483160313B501B6014108F30040086F
:10053800F2003F08F1003E08F0000030F7000030FC
:10054800F6000030F5000030F4000A168A15C825B8
:100558000A128A110318B12AB22AA22B0310831691
:100568000313400D410D823EB500FF3003180030E3
:10057800B600FF30B5070318B60AFF30B6070330D8
:10058800F0000030F1003608F3003508F2000A16D2
:100598008A155F250A128A11710883160313B6009B
:1005A8007008B5000A30F7000030F8003608FA0085
:1005B8003508F9000A168A1529270A128A117808B7
:1005C80083160313B6007708B500B61FEC2AED2A88
:1005D800F32AFF30B5070318B60AFF30B60735030C
:1005E800FF3A0A128A15A1240A128A1183120313E8
:1005F800410883160313BA008312031340088316B5
:100608000313B900831203133F0883160313B800BA
:10061800831203133E0883160313B700410883129D
:100628000313A70083160313400883120313A600BD
:10063800831603133F0883120313A50083160313BD
:100648003E0883120313A400831603133A08831287
:100658000313AB0083160313390883120313AA008C
:1006680083160313380883120313A9008316031390
:10067800370883120313A8000A128A155C210A128C
:100688008A1183120313270883160313BA008312EF
:100698000313260883160313B900831203132508CE
:1006A80083160313B8008312031324088316031355
:1006B800B7003A08F3003908F2003808F1003708A3
:1006C800F0003F30F7008030F6000030F5000030D1
:1006D800F4000A128A1503200A128A110318752BCE
:1006E800762B7F2BFF3083160313B5070318B60A42
:1006F800FF30B607A22B831603133A08F300390814
:10070800F2003808F1003708F0004130F7002030D7
:10071800F6000030F5000030F4000A128A150320B4
:100728000A128A11031C992B9A2BA22B01308316CB
:100738000313B5070318B60A0030B6078316031368
:100748003D08803AFF0080307F02031DAD2B0D303D
:100758003C020318B02BB12BF82B831603133C086B
:100768000A168A119D230A128A118312031341085B
:10077800D5004008D4003F08D3003E08D2008316B5
:100788000313410883120313D90083160313400887
:1007980083120313D800831603133F08831203132D
:1007A800D700831603133E0883120313D6000A16D4
:1007B8008A11A8250A128A11831203135508831671
:1007C8000313C10083120313540883160313C000D4
:1007D80083120313530883160313BF0083120313F2
:1007E800520883160313BE00831603133608803A93
:1007F800FF0080307F02031D032C0A3035020318E6
:10080800062C072C582C831603134108F3004008C4
:10081800F2003F08F1003E08F0000030F700003019
:10082800F6000030F5000030F4000A168A15C825D5
:100838000A128A110318212C222CCA2C831603139E
:10084800410883120313D40083160313400883124C
:100858000313D300831603133F0883120313D20034
:10086800831603133E0883120313D1000A168A1154
:10087800D5200A128A118312031354085304520410
:100888005104031D482C492CCA2C8316031336081F
:10089800803AFF0080307F02031D542C023035025D
:1008A800031C572C582CCA2C831603133A08F30040
:1008B8003908F2003808F1003708F0004030F70036
:1008C8008930F6007030F5005F30F4000A128A159E
:1008D80003200A128A110318722C732C7C2CF7300F
:1008E80083160313B5070318B60AFF30B607842C1E
:1008F800F83083160313B5070318B60AFF30B60796
:1009080035080A128A15A1240A128A1183120313C0
:10091800410883160313BA00831203134008831691
:100928000313B900831203133F0883160313B80097
:10093800831203133E0883160313B7004108F3001C
:100948004008F2003F08F1003E08F0003A08F700BE
:100958003908F6003808F5003708F4000A128A1139
:10096800F6200A128A11730883160313B40072085A
:10097800B3007108B2007008B1000030C100003047
:10098800C0000030BF000030BE004E2D8316031398
:10099800410883120313D4008316031340088312FB
:1009A8000313D300831603133F0883120313D200E3
:1009B800831603133E0883120313D1000A168A1103
:1009C800D5200A128A1183120313540883160313BD
:1009D800B40083120313530883160313B30083125E
:1009E8000313520883160313B2008312031351082A
:1009F80083160313B1003408F3003308F2003208F9
:100A0800F1003108F00000300A128A113E200A1263
:100A18008A11730883120313E9007208E800710849
:100A2800E7007008E60083160313410883120313D6
:100A3800ED0083160313400883120313EC0083169A
:100A480003133F0883120313EB00831603133E08B6
:100A580083120313EA000A168A153B250A128A1123
:100A680083120313690883160313C1008312031347
:100A7800680883160313C0008312031367088316DC
:100A88000313BF0083120313660883160313BE0003
:100A9800B501B601C201C20A4208A500013003101F
:100AA800A50DFF3E031D532D0310250D693E84003F
:100AB8000A168A1100200A128A11A6000A168A113B
:100AC80000200A128A11A7000A168A1100200A12A9
:100AD8008A11A8000A168A1100200A128A11A90090
:100AE80029083402031D822D28083302031D822D94
:100AF80027083202031D822D260831020318852D8E
:100B0800862D872D912D0130A5002508C2070A30B2
:100B18004206031D902D912D502D03302F05A50061
:100B280000303005A6002508260403199C2D9D2DAC
:100B38000B2E3B0884002D30831380000130A50064
:100B48002508BB070B2E4208A50001300310A50D90
:100B5800FF3E031DAA2D0310250D693E84000A16C9
:100B68008A1100200A128A11F0000A168A11002040
:100B78000A128A11F1000A168A1100200A128A1133
:100B8800F2000A168A1100200A128A11F3003408AA
:100B9800F7003308F6003208F5003108F4000A16A9
:100BA8008A15C3260A128A11730883160313BA001A
:100BB8007208B9007108B8007008B7000030F30077
:100BC8000030F2000030F1000A30F0003A08F70077
:100BD8003908F6003808F5003708F4000A168A15AF
:100BE80016260A128A11730883160313BA007208AC
:100BF800B9007108B8007008B7003B0884003708CE
:100C0800303E831380000130A5002508BB07013062
:100C1800C202420A031D112E122EA72D242E83165E
:100C280003133B0884003030831380000130A50093
:100C38002508BB07FF30B5070318B60AFF30B6070B
:100C48003608803AFF0080307F02031D2D2E0130C8
:100C580035020318302E312E132E831603133D0848
:100C6800803AFF0080307F02031D3C2E09303C0291
:100C7800031C3F2E402E452E083083160313C20056
:100C8800492E831603133C08C2004208A500A6019A
:100C98002508BC022608031CBD03BD02420803192F
:100CA800562E572E602E3B0884002E30831380006A
:100CB8000130A5002508BB0742080A128A15A1249D
:100CC8000A128A1183120313410883160313AD0015
:100CD80083120313400883160313AC008312031313
:100CE8003F0883160313AB00831203133E088316D1
:100CF8000313AA002D0883120313AB0083160313F2
:100D08002C0883120313AA00831603132B088312DB
:100D18000313A900831603132A0883120313A800D8
:100D280083160313410883120313A70083160313C2
:100D3800400883120313A600831603133F08831287
:100D48000313A500831603133E0883120313A4009C
:100D58000A128A155C210A128A11831203132708C2
:100D6800D4002608D3002508D2002408D1000A168A
:100D78008A11D5200A128A11831203135408831684
:100D88000313B40083120313530883160313B30029
:100D980083120313520883160313B200831203133A
:100DA800510883160313B100782F4208A5000130BB
:100DB8000310A50DFF3E031DDC2E0310250D693E13
:100DC80084000A168A1100200A128A11F0000A16F5
:100DD8008A1100200A128A11F1000A168A110020CD
:100DE8000A128A11F2000A168A1100200A128A11C0
:100DF800F3003408F7003308F6003208F50031082C
:100E0800F4000A168A15C3260A128A117308831673
:100E18000313BA007208B9007108B8007008B70067
:100E28000030F3000030F2000030F1000A30F0002A
:100E38003A08F7003908F6003808F5003708F400D2
:100E48000A168A1516260A128A11730883160313BE
:100E5800BA007208B9007108B8007008B7003B08FA
:100E680084003708303E831380000130A500250830
:100E7800BB074208A50001300310A50DFF3E031D66
:100E8800402F0310250D693E84000A168A110020A0
:100E98000A128A11F0000A168A1100200A128A1111
:100EA800F1000A168A1100200A128A11F2000A16A5
:100EB8008A1100200A128A11F3003408F700330857
:100EC800F6003208F5003108F4000A168A151626CD
:100ED8000A128A11730883160313B4007208B30048
:100EE8007108B2007008B1000130C202420A031D45
:100EF8007E2F7F2FD92E8F2F3B088400303083130D
:100F080080000130A5002508BB07FF30BC07031887
:100F1800BD0AFF30BD073C083D04031D942F952FE3
:100F2800802FD92F3C083D04031D9B2F9C2FAA2FEF
:100F38003408330432043104031DA32FA42FAA2F2D
:100F48000130BC070318BD0A0030BD073D08803AD0
:100F5800803C031DB12F3C0842020318B42FB52F63
:100F6800B62FC52F831603133D08803AA50080309D
:100F78002502031DC12F42083C020318C42FC52FA8
:100F8800C52F0330831603132F05A5000030300545
:100F9800A600250826040319D22FD32FD92F3B08E2
:100FA80084002D3083138000BF290130A007FF3053
:100FB800200784000A168A1100200A128A11C2002A
:100FC8004208031DE82FE92FB4293B088400831346
:100FD800800108008313CD30FD001C30FE00CF30A7
:100FE800FF00C63084000A168A1516250A128A11CF
:080FF80083010A168A15922FED
:1010060000307005F80000307105F9008030720577
:10101600FA007F307305FB007B087A0479047804B4
:10102600031D162817281F280030F3000030F20091
:101036000030F1000030F00000307405F800003098
:101046007505F90080307605FA007F307705FB00DC
:101056007B087A0479047804031D322833283B2858
:101066000030F7000030F6000030F5000030F400E4
:10107600F31F3E283F2863280030F8000030F900AF
:101086000030FA008030FB007008F8027108031C7B
:10109600710F4E284F28F9027208031C720F54284C
:1010A6005528FA027308031C730F5A285B28FB02A3
:1010B6007B08F3007A08F2007908F1007808F0005E
:1010C600F71F662867288B280030F8000030F900E3
:1010D6000030FA008030FB007408F8027508031C23
:1010E600750F76287728F9027608031C760F7C2878
:1010F6007D28FA027708031C770F82288328FB02D3
:101106007B08F7007A08F6007908F5007808F400FD
:101116008030F3068030F70677087302031D9D289A
:1011260076087202031D9D2875087102031D9D280D
:10113600740870020318A028A128A3280310A42865
:10114600031408007008F8007108F9007208FA0024
:101156000310790D7A0D83120313A5002508031DCC
:10116600B528B628BF280030F3000030F200003062
:10117600F1000030F0005B297408F8007508F900EA
:101186007608FA000310790D7A0DA4002408031DD1
:10119600CD28CE28CF28B628F117FF30F005FF302E
:1011A600F1050030F205F517FF30F405FF30F505BF
:1011B6000030F6050030A3000030A2000030A10088
:1011C6000030A0007F30A50298302407F800780888
:1011D600A5021830A4000130F8000310A00DA10DDF
:1011E600A20DA30DF80BF02876087202031D012943
:1011F60075087102031D012974087002031C042975
:10120600052910297408F0027508031C750FF102F0
:101216007608031C760AF202201401300310F00D42
:10122600F10DF20DFF3E031D11290130A402031D2D
:101236001D291E29EE28A51F212922293C2925081A
:10124600803A973E0318282929292A29B6280130E9
:101256000310A30CA20CA10CA00CFF3E031D2B290E
:101266000130F8007808A507031D3A293B292A29E9
:10127600532918302502031C412942294E29B62834
:101286000130F8000310A00DA10DA20DA30DF80B5F
:1012960045290130A5022508031D52295329432952
:1012A6002308F3002208F2002108F1002008F000CC
:1012B60008008312031327088039B1002708AC0001
:1012C6002C07B700A61F682969296A293714370829
:1012D60003196E296F297E29370A031D732974297C
:1012E6007C290030A7000030A6000030A5000030A1
:1012F600A400A61786290030A7000030A6000030FB
:10130600A5000030A4002B088039AC002C08B106DB
:101316002B08AC002C07B600AA1F92299329942902
:1013260036143608031998299929A829360A031D5F
:101336009D299E29A6290030AB000030AA00003066
:10134600A9000030A800AA17B0290030AB00003071
:10135600AA000030A9000030A80036080319B429F5
:10136600B529BA293708031DB929BA29C329003076
:10137600A7000030A6000030A5000030A400A02C75
:101386002408F0002A080A168A11AE200A128A15C5
:10139600710883120313BD007008BC003C08AC0042
:1013A600AD01AE01AF012F08B5002E08B4002D081F
:1013B600B3002C08B2003D08AC00AD01AE01AF0190
:1013C6002F08BB002E08BA002D08B9002C08B8005B
:1013D6002508F00029080A168A11AE200A128A1575
:1013E600710883120313BD007008BC003C08AC00F2
:1013F600AD01AE01AF012C08B2072D080311031889
:10140600013E0319072AB3072E0803110318013EEC
:1014160003190E2AB4072F0803110318013E0319F6
:10142600152AB5073D08AC00AD01AE01AF012C0889
:10143600B8072D0803110318013E0319232AB9071B
:101446002E0803110318013E03192A2ABA072F088A
:1014560003110318013E0319312ABB072608F000C1
:1014660028080A168A11AE200A128A1571088312F4
:101476000313BD007008BC003C08AC00AD01AE0112
:10148600AF012C08B2072D0803110318013E0319FA
:101496004D2AB3072E0803110318013E0319542AD7
:1014A600B4072F0803110318013E03195B2AB50779
:1014B6003D08AC00AD01AE01AF012C08B8072D0800
:1014C60003110318013E0319692AB9072E080311EF
:1014D6000318013E0319702ABA072F0803110318CF
:1014E600013E0319772ABB070830AC000310B20D82
:1014F600B30DB40DB50DAC0B792A2508F0002808FC
:101506000A168A11AE200A128A157108831203136D
:10151600BD007008BC003C08AC003D08AD00AE0143
:10152600AF012C08B2072D0803110318013E031959
:101536009D2AB3072E0803110318013E0319A42A96
:10154600B4072F0803110318013E0319AB2AB50788
:101556002408F00029080A168A11AE200A128A15F4
:10156600710883120313BD007008BC003C08AC0070
:101576003D08AD00AE01AF012C08B2072D080311DE
:101586000318013E0319C82AB3072E0803110318CE
:10159600013E0319CF2AB4072F0803110318013E91
:1015A6000319D62AB5070830AC000310B20DB30DE7
:1015B600B40DB50DAC0BD82A2408F00028080A167D
:1015C6008A11AE200A128A15710883120313BD0010
:1015D6007008BC003C08AC003D08AD00AE01AF0190
:1015E6002C08B2072D0803110318013E0319FC2A23
:1015F600B3072E0803110318013E0319032BB40782
:101606002F0803110318013E03190A2BB5072508F5
:10161600F0002A080A168A11AE200A128A157108E5
:1016260083120313BD007008BC003C08AC003D08E3
:10163600AD00AE01AF012C08B8072D080311031841
:10164600013E0319272BB9072E0803110318013E83
:1016560003192E2BBA072F0803110318013E03198D
:10166600352BBB072608F00029080A168A11AE207A
:101676000A128A15710883120313BD007008BC0094
:101686003C08AC003D08AD00AE01AF012C08B80720
:101696002D0803110318013E0319522BB9072E0812
:1016A60003110318013E0319592BBA072F0803111A
:1016B6000318013E0319602BBB072608F0002A0811
:1016C6000A168A11AE200A128A15710883120313AC
:1016D600BD007008BC003C08AC003D08AD00AE0182
:1016E600AF0108300310AC0DAD0DAE0DAF0DFF3ED2
:1016F600031D752B2C08B8072D0803110318013E8E
:101706000319862BB9072E0803110318013E031986
:101716008D2BBA072F0803110318013E0319942BCA
:10172600BB073208AC003308AD003408AE003508FC
:10173600AF0018300310AF0CAE0CAD0CAC0CFF3E76
:10174600031D9D2B2C08B8072D0803110318013E15
:101756000319AE2BB9072E0803110318013E03190E
:10176600B52BBA072F0803110318013E0319BC2B2A
:10177600BB070830AC000310B20DB30DB40DB50DA8
:10178600AC0BBE2B37083607AC00AD01AD0D2C08EF
:10179600823EBC002D080318013EFF3EBD00F02B23
:1017A6000130AC000310B80DB90DBA0DBB0DAC0B72
:1017B600D52BB51FDF2BE02BE12B38140130AC0005
:1017C6000310B20DB30DB40DB50DAC0BE32BFF300A
:1017D600BC070318BD0AFF30BD07BA1FF32BF42B55
:1017E600D32BB601B51FF82BF92B152CFF3032057C
:1017F600AC00FF303305AD00FF303405AE007F305E
:101806003505AF002F082E042D042C0403190C2CCB
:101816000D2C102CB601B60A152C381C132C142CC2
:10182600152C0D2C36080319192C1A2C4B2C0130AB
:10183600B807003003180130B9070030031801302B
:10184600BA07003003180130BB073B1C2B2C2C2C8D
:101856004B2C3808AC003908AD003A08AE003B08FE
:10186600AF000130B0002F0DAF0CAE0CAD0CAC0CC0
:10187600B00B362C2F08BB002E08BA002D08B90075
:101886002C08B8000130BC070318BD0A0030BD079C
:101896003D08803AFF0080307F02031D542CFF3044
:1018A6003C02031C572C582C632C7F3083120313E5
:1018B600BB008030BA000030B9000030B800942C6C
:1018C600831203133D08803AFF0080307F02031D18
:1018D6006E2C01303C020318712C722C7E2C0030C9
:1018E60083120313BB000030BA000030B900003089
:1018F600B800B101942C831203133C08B700FF30E3
:10190600B805FF30B9057F30BA050030BB05371C76
:101916008D2C8E2C8F2CBA173708AC0003102C0C8C
:10192600BB003108AC002C08BB043B08A7003A08F2
:10193600A6003908A5003808A4000800831203137E
:10194600D000D01FA72CA82C552ED009D00A50089D
:10195600803A123E031CB02CB12C992D0A30F700A8
:101966000030F8005008F200F301F21BF303643074
:10197600F0000030F1000A168A156A260A128A1546
:101986007108FA007008F9000A168A1529270A1242
:101996008A15770883120313C20001300310C20DA3
:1019A600FF3E031DD12C0310420D593E84000A163A
:1019B6008A1100200A128A15C3000A168A1100200D
:1019C6000A128A15C4000A168A1100200A128A15FC
:1019D600C5000A168A1100200A128A15C600460892
:1019E600A7004508A6004408A5004308A4006430E3
:1019F600F7000030F8005008F900FA01F91BFA0365
:101A06000A168A1529270A128A15770883120313DC
:101A1600C70001300310C70DFF3E031D0D2D031037
:101A2600470D7D3E84000A168A1100200A128A1587
:101A3600C8000A168A1100200A128A15C9000A1659
:101A46008A1100200A128A15CA000A168A11002075
:101A56000A128A15CB004B08AB004A08AA004908AF
:101A6600A9004808A8000A128A155C210A128A15DC
:101A7600831203132708CF002608CE002508CD00C1
:101A86002408CC000A30F0000030F1005008F200C3
:101A9600F301F21BF3030A168A156A260A128A153F
:101AA600700883120313C20001300310C20DFF3EFB
:101AB600031D582D0310420D353E84000A168A1167
:101AC60000200A128A15C3000A168A1100200A127B
:101AD6008A15C4000A168A1100200A128A15C50042
:101AE6000A168A1100200A128A15C6004608A7009F
:101AF6004508A6004408A5004308A4004F08AB000B
:101B06004E08AA004D08A9004C08A8000A128A151A
:101B16005C210A128A15831203132708C1002608BE
:101B2600C0002508BF002408BE00FF2F5008803AD9
:101B3600753E031C9F2DA02D282E0A30F000003084
:101B4600F1005008F200F301F21BF3030A168A159E
:101B56006A260A128A15700883120313C20001301E
:101B66000310C20DFF3E031DB32D0310420D353E7B
:101B760084000A168A1100200A128A15C3000A1662
:101B86008A1100200A128A15C4000A168A1100203A
:101B96000A128A15C5000A168A1100200A128A1529
:101BA600C6004608A7004508A6004408A500430845
:101BB600A4000A30F7000030F8005008F900FA01D6
:101BC600F91BFA030A168A1529270A128A157708B5
:101BD60083120313C70001300310C70DFF3E031D18
:101BE600EF2D0310470D593E84000A168A11002076
:101BF6000A128A15C8000A168A1100200A128A15C6
:101C0600C9000A168A1100200A128A15CA000A1685
:101C16008A1100200A128A15CB004B08AB004A082D
:101C2600AA004908A9004808A8000A128A155C21DA
:101C36000A128A15831203132708C1002608C0005A
:101C46002508BF002408BE00FF2F5008C20001303F
:101C56000310C20DFF3E031D2B2E0310420D353E11
:101C660084000A168A1100200A128A15C3000A1671
:101C76008A1100200A128A15C4000A168A11002049
:101C86000A128A15C5000A168A1100200A128A1538
:101C9600C6004608C1004508C0004408BF00430806
:101CA600BE00FF2F5008803A123E031C5B2E5C2EAE
:101CB600442F0A30F7000030F8005008F200F30114
:101CC600F21BF3036430F0000030F1000A168A15A7
:101CD6006A260A128A157108FA007008F9000A16AF
:101CE6008A1529270A128A15770883120313C20058
:101CF60001300310C20DFF3E031D7C2E0310420D62
:101D0600253E84000A168A1100200A128A15C3008D
:101D16000A168A1100200A128A15C4000A168A11A8
:101D260000200A128A15C5000A168A1100200A1216
:101D36008A15C6004608A7004508A6004408A5005F
:101D46004308A4006430F7000030F8005008F9009A
:101D5600FA01F91BFA030A168A1529270A128A15A7
:101D6600770883120313C70001300310C70DFF3E27
:101D7600031DB82E0310470D493E84000A168A112A
:101D860000200A128A15C8000A168A1100200A12B3
:101D96008A15C9000A168A1100200A128A15CA0075
:101DA6000A168A1100200A128A15CB004B08AB00CE
:101DB6004A08AA004908A9004808A8000A128A1574
:101DC6005C210A128A15831203132708CF002608FE
:101DD600CE002508CD002408CC000A30F0000030E3
:101DE600F1005008F200F301F21BF3030A168A15FC
:101DF6006A260A128A15700883120313C20001307C
:101E06000310C20DFF3E031D032F0310420D013EBA
:101E160084000A168A1100200A128A15C3000A16BF
:101E26008A1100200A128A15C4000A168A11002097
:101E36000A128A15C5000A168A1100200A128A1586
:101E4600C6004608A7004508A6004408A5004308A2
:101E5600A4004F08AB004E08AA004D08A9004C0884
:101E6600A8000A128A155C210A128A158312031326
:101E76002708C1002608C0002508BF002408BE00A8
:101E8600FF2F5008803A753E031C4A2F4B2FD32F45
:101E96000A30F0000030F1005008F200F301F21BA6
:101EA600F3030A168A156A260A128A15700883121F
:101EB6000313C20001300310C20DFF3E031D5E2F47
:101EC6000310420D013E84000A168A1100200A12F0
:101ED6008A15C3000A168A1100200A128A15C40040
:101EE6000A168A1100200A128A15C5000A168A11D6
:101EF60000200A128A15C6004608A7004508A60053
:101F06004408A5004308A4000A30F7000030F80092
:101F16005008F900FA01F91BFA030A168A1529274F
:101F26000A128A15770883120313C70001300310BB
:101F3600C70DFF3E031D9A2F0310470D253E840053
:101F46000A168A1100200A128A15C8000A168A1172
:101F560000200A128A15C9000A168A1100200A12E0
:101F66008A15CA000A168A1100200A128A15CB00A1
:101F76004B08AB004A08AA004908A9004808A8006F
:101F86000A128A155C210A128A158312031327087E
:101F9600C1002608C0002508BF002408BE00FF2F88
:101FA6005008C20001300310C20DFF3E031DD62F9C
:101FB6000310420D013E84000A168A1100200A12FF
:101FC6008A15C3000A168A1100200A128A15C4004F
:101FD6000A168A1100200A128A15C5000A168A11E5
:101FE60000200A128A15C6004608C1004508C0002E
:101FF6004408BF004308BE00080010308A000408E9
:10200600840A820700340034003480343F340034BC
:1020160000342034413400340034C83442340034AF
:1020260000347A344434003440341C3446340034AA
:102036005034C3344734003424347434493480343F
:10204600963418344B342034BC34BE344C342834E3
:102056006B346E344E34F934023415345034EC3467
:102066007834AD346034CA34F234493471340034CF
:10207600003480343F34CD34CC34CC343D340A344F
:10208600D73423343C346F34123483343A3417341F
:10209600B734D1343834AC34C53427343734BD344E
:1020A6003734863435349534BF34D63433347734C4
:1020B600CC342B3432345F34703489343034FF34CA
:1020C600E634DB342E340834E5343C341E346034D4
:1020D6004234A2340D3401340034003400340A345E
:1020E6000034003400346434003400340034E834FE
:1020F6000334003400341034273400340034A03460
:10210600863401340034403442340F340034803491
:102116009634983400340034E134F5340534003410
:10212600CA349A343B3425342E343234663420345F
:0421360056340034E7
:10213C00831603130717871787170C30990018138A
:10214C0098161812181518108312031398170800F4
:10215C00F800F401F5017008F200F3017208F600C2
:10216C007308F700781CBB28BC28C2287608F40733
:10217C000318F50A7708F50701300310F60DF70D73
:10218C00FF3E031DC3280310F80C7808031DCF284D
:10219C00D028B8287508F1007408F0000800031066
:1021AC0083120313530D540DDA005A08031DDF2854
:1021BC00E028E9280030D4000030D3000030D200F1
:1021CC000030D1004C295108D5005208D6005308D4
:1021DC00D7005408D8001F300310D80CD70CD60CDD
:1021EC00D50CFF3E031DF2285508D900D317FF303C
:1021FC00D105FF30D205FF30D3050030D405963021
:10220C00DA02DA1F0A290B2925295A08803A973E47
:10221C000318112912291329E02801300310D40CBA
:10222C00D30CD20CD10CFF3E031D14290130D50068
:10223C005508DA07031D2329242913293C292030AA
:10224C005A02031C2A292B293729E0280130D500F2
:10225C000310D10DD20DD30DD40DD50B2E29013079
:10226C00DA025A08031D3B293C292C295908031969
:10227C00402941294C29D109D209D309D409D10AC1
:10228C000319D20A0319D30A0319D40A08008312BA
:10229C0003131F140A168A1525250A168A11831290
:1022AC0003131F151F195B295C295829023083124F
:1022BC000313DC00DC0B60290000831203131E08DF
:1022CC00DC00DD015C08DD00DC015C08E2005D087F
:1022DC00E300831603131E0883120313DC00DD01D5
:1022EC005C08E2045D08E3044430C1008030C000A7
:1022FC000030BF000030BE004030A700A030A60068
:10230C000030A5000030A4006208F0006308F10062
:10231C000030F11BFF30F200F30001300A128A1179
:10232C003E200A168A11730883120313AB0072083D
:10233C00AA007108A9007008A8000A128A155C216D
:10234C000A168A11831203132708C5002608C40035
:10235C002508C3002408C2000A168A11CA210A16CD
:10236C008A11831203134108E1004008E0003F0882
:10237C00DF003E08DE006108DB006008DA005F0861
:10238C00D9005E08D8000800831203134508803971
:10239C00CF004508C6004607D600C41FD629D7294A
:1023AC00D829561456080319DC29DD29ED29560ABB
:1023BC00031DE129E229EA290030C5000030C400E0
:1023CC000030C3000030C200C417C501F52900302D
:1023DC00C5000030C4000030C3000030C20041080A
:1023EC008039C6004608CF064108C6004607D7000C
:1023FC00C01F012A022A032A571457080319072A57
:10240C00082A182A570A031D0C2A0D2A152A0030EF
:10241C00C1000030C0000030BF000030BE00C0174B
:10242C00C101202A0030C1000030C0000030BF00C4
:10243C000030BE00410840043F043E04031D272A1F
:10244C00282A412A0030C5000030C4000030C300E7
:10245C000030C2008030C4047F30C5044F08C60071
:10246C004608C5044508C1004408C0004308BF0025
:10247C004208BE009C2B5608031D452A462A4F2AAB
:10248C000030C1000030C0000030BF000030BE0082
:10249C009C2B5608C600C7014708C90057084602BE
:1024AC00C800031CC90348087F3ED0004908031824
:1024BC00013E003ED1004508CE004408CD00430843
:1024CC00CC004208CB000030C5000030C400003006
:1024DC00C3000030C2000030D5000030D400003002
:1024EC00D3000030D200D701C52A570803197F2A20
:1024FC00802AA02A0130C6000310CB0DCC0DCD0DC7
:10250C00CE0DC60B822A0130C6000310C20DC30DBE
:10251C00C40DC50DC60B8B2AD51F952A962A972A52
:10252C0042140130C6000310D20DD30DD40DD50DBD
:10253C00C60B992A41084E02031DAE2A40084D02D3
:10254C00031DAE2A3F084C02031DAE2A3E084B0267
:10255C00031CB12AB22AC12A55173E08CB023F08E8
:10256C00031C3F0FCC024008031C400FCD02410856
:10257C00031C410FCE020130C6004608D7071A30A3
:10258C005702031CCA2ACB2A7B2A4E084D044C0442
:10259C004B040319D22AD32AF22A5214F22A0130FC
:1025AC00C6000310C20DC30DC40DC50DC60BD72A32
:1025BC00D51FE12AE22AE32A42140130C600031097
:1025CC00D20DD30DD40DD50DC60BE52AFF30D00797
:1025DC000318D10AFF30D107C41FF52AF62AD52AD1
:1025EC00D701D51FFA2AFB2A172BFF305205C6003C
:1025FC00FF305305C700FF305405C8007F30550528
:10260C00C900490848044704460403190E2B0F2B34
:10261C00122BD701D70A172B421C152B162B172B55
:10262C000F2B570803191B2B1C2B4D2B0130C207EA
:10263C00003003180130C307003003180130C40701
:10264C00003003180130C507451C2D2B2E2B4D2BAC
:10265C004208C6004308C7004408C8004508C90022
:10266C000130CA00490DC90CC80CC70CC60CCA0BEA
:10267C00382B4908C5004808C4004708C300460861
:10268C00C2000130D0070318D10A0030D10751081D
:10269C00803AFF0080307F02031D562BFF30500222
:1026AC00031C592B5A2B682BFF3083120313D000B9
:1026BC000030D1000030C5000030C4000030C30031
:1026CC000030C200831203135108803AFF0080309F
:1026DC007F02031D732B013050020318762B772BCE
:1026EC00842B83120313D001D1010030C5000030BC
:1026FC00C4000030C3000030C200CF0183120313AA
:10270C005008D600561C8B2B8C2B8E2BC417922B5F
:10271C007F30C6004608C4055608C6000310460C98
:10272C00C5004F08C6004608C504382A08008312A5
:10273C000313D1006E305102031CA52BA62BB32C16
:10274C003F30A7000030A6000030A5000030A400E8
:10275C006430F6000030F7005108C200C301420893
:10276C00F8004308F9000A168A1584250A168A11FE
:10277C00760883120313C40001300310C40DFF3E0E
:10278C00031DC32B0310440D7D3E84000A168A11D1
:10279C0000200A168A11C5000A168A1100200A1692
:1027AC008A11C6000A168A1100200A168A11C7005F
:1027BC000A168A1100200A168A11C8004808AB00B4
:1027CC004708AA004608A9004508A8000A128A155D
:1027DC005C210A168A11831203132708D0002608DD
:1027EC00CF002508CE002408CD000A30F6000030BA
:1027FC00F7005108C200C3014208F2004308F3007D
:10280C006430F0000030F1000A128A1104200A161C
:10281C008A117108F9007008F8000A168A158425C7
:10282C000A168A11760883120313C40001300310B0
:10283C00C40DFF3E031D1D2C0310440D593E840096
:10284C000A168A1100200A168A11C5000A168A1166
:10285C0000200A168A11C6000A168A1100200A16D0
:10286C008A11C7000A168A1100200A168A11C8009C
:10287C004808A7004708A6004608A5004508A4007C
:10288C005008AB004F08AA004E08A9004D08A8003C
:10289C000A128A155C210A168A118312031327085F
:1028AC00CC002608CB002508CA002408C9000A3031
:1028BC00F0000030F1005108C200C3014208F200E0
:1028CC004308F3000A128A1104200A168A117008B0
:1028DC0083120313C40001300310C40DFF3E031D0B
:1028EC00722C0310440D353E84000A168A11002008
:1028FC000A168A11C5000A168A1100200A168A11B6
:10290C00C6000A168A1100200A168A11C7000A1678
:10291C008A1100200A168A11C8004808A700470827
:10292C00A6004608A5004508A4004C08AB004B08BF
:10293C00AA004A08A9004908A8000A128A155C21B5
:10294C000A168A11831203132708C1002608C00037
:10295C002508BF002408BE00A72D0B305102031C14
:10296C00B82CB92C642D3F30A7000030A6000030E5
:10297C00A5000030A4000A30F6000030F700510822
:10298C00C200C3014208F8004308F9000A168A1570
:10299C0084250A168A11760883120313C4000130A9
:1029AC000310C40DFF3E031DD62C0310440D593EDD
:1029BC0084000A168A1100200A168A11C5000A160C
:1029CC008A1100200A168A11C6000A168A110020E4
:1029DC000A168A11C7000A168A1100200A168A11D3
:1029EC00C8004808AB004708AA004608A9004508DB
:1029FC00A8000A128A155C210A168A118312031385
:102A0C002708D0002608CF002508CE002408CD00CA
:102A1C000A30F0000030F1005108C200C301420836
:102A2C00F2004308F3000A128A1104200A168A11D4
:102A3C00700883120313C40001300310C40DFF3E51
:102A4C00031D232D0310440D353E84000A168A11F4
:102A5C0000200A168A11C5000A168A1100200A16CF
:102A6C008A11C6000A168A1100200A168A11C7009C
:102A7C000A168A1100200A168A11C8004808A700F5
:102A8C004708A6004608A5004508A4005008AB005E
:102A9C004F08AA004E08A9004D08A8000A128A1572
:102AAC005C210A168A11831203132708C100260819
:102ABC00C0002508BF002408BE00A72D3F30A7008A
:102ACC000030A6000030A5000030A4005108C20060
:102ADC0001300310C20DFF3E031D6F2D0310420D7C
:102AEC00353E84000A168A1100200A168A11C3008A
:102AFC000A168A1100200A168A11C4000A168A11B5
:102B0C0000200A168A11C5000A168A1100200A161E
:102B1C008A11C6004608AB004508AA004408A90063
:102B2C004308A8000A128A155C210A168A1183121E
:102B3C0003132708C1002608C0002508BF0024087D
:102B4C00BE0008008312031355088039E2005508B3
:102B5C00DA005A07E400D41FB42DB52DB62D641439
:102B6C0064080319BA2DBB2DCB2D640A031DBF2D90
:102B7C00C02DC82D0030D5000030D4000030D3005B
:102B8C000030D200D417D501D32D0030D500003041
:102B9C00D4000030D3000030D20059088039E30053
:102BAC00630862060319DB2DDC2DDD2D6217590835
:102BBC00DA005A07E300D81FE42DE52DE62D631447
:102BCC0063080319EA2DEB2DFB2D630A031DEF2D72
:102BDC00F02DF82D0030D9000030D8000030D7008F
:102BEC000030D600D817D901032E0030D9000030A0
:102BFC00D8000030D7000030D600640863020318F8
:102C0C00082E092E2F2E621F0C2E0D2E112E803009
:102C1C00DA005A08E2066408E5006308E400650877
:102C2C00E3005208E5005608D2006508D6005308A8
:102C3C00E5005708D3006508D7005408E50058088C
:102C4C00D4006508D8005508E5005908D50065087A
:102C5C00D900E5016308DA00DB015B08DD006408DC
:102C6C005A02DC00031CDD035D08803AFF00803053
:102C7C007F02031D432E1A305C02031C462E472E86
:102C8C007E2E831203135508540453045204031D5F
:102C9C00502E522E0130532E0030E5000030D5005E
:102CAC000030D4000030D3000030D2006308E400C0
:102CBC00862E651C622E632E6A2E6508DA000310C0
:102CCC005A0C0138E5006C2E0310E50C521C6F2ECB
:102CDC00702E712EE5170130DA00550DD50CD40C81
:102CEC00D30CD20CDA0B732E0130DA005A08E4073D
:102CFC008312031363086402031C852E862E5F2E39
:102D0C00621B892E8A2ED32E6408031D8E2E8F2EC5
:102D1C00982E0030D5000030D4000030D3000030A5
:102D2C00D200FF2F5608D207570803110318013E93
:102D3C000319A12ED307580803110318013E0319D8
:102D4C00A82ED407590803110318013E0319AF2EFE
:102D5C00D507551CB22EB32E872F651CB62EB72E59
:102D6C00BE2E6508DA0003105A0C0138E500C02E9F
:102D7C000310E50C521CC32EC42EC52EE5170130D2
:102D8C00DA00550DD50CD40CD30CD20CDA0BC72EA3
:102D9C000130DA005A08E407872F5508803AFF0003
:102DAC005908803A7F02031DE52E58085402031D72
:102DBC00E52E57085302031DE52E56085202031840
:102DCC00E82EE92E412FFF30DA00FF30DB00FF3018
:102DDC00DC00FF30DD005608DE005708DF00580825
:102DEC00E0005908E1005208DE025308031C530F9F
:102DFC00002F012FDF025408031C540F062F072F3E
:102E0C00E0025508031C550F0C2F0D2FE1025E0834
:102E1C00DA075F0803185F0F142F152FDB07600804
:102E2C000318600F1A2F1B2FDC0761080318610AA7
:102E3C00DD075D08D5005C08D4005B08D3005A0898
:102E4C00D2008030DA005A08E206E509E50A650886
:102E5C00031D312F322F4F2F0130D20700300318B2
:102E6C000130D307003003180130D40700300318A9
:102E7C000130D5074F2F5608D2025708031C570FA5
:102E8C00D3025808031C580FD4025908031C590FBD
:102E9C00D5025508540453045204031D562F572FC2
:102EAC00832F6508031D5B2F5C2F832F0030D5000B
:102EBC000030D4000030D3000030D200FF2F01309E
:102ECC00DA000310D20DD30DD40DD50DDA0B672F0C
:102EDC00E51F712F722F732F5214651C762F772FCD
:102EEC007A2F0314E50D7C2F0310E50D64080319EC
:102EFC00802F812F832F0130E402D41F862F872F40
:102F0C00652FE301E51F8B2F8C2F9A2F65087F39D6
:102F1C000319912F922F952FE301E30A9A2F521C3C
:102F2C00982F992F9A2F922F630803199E2F9F2F5A
:102F3C00D32F0130D207003003180130D3070030F3
:102F4C0003180130D407003003180130D507551C85
:102F5C00B02FB12FD32F5208DA005308DB005408DE
:102F6C00DC005508DD000130DE005D0DDD0CDC0CF5
:102F7C00DB0CDA0CDE0BBB2F5D08D5005C08D40033
:102F8C005B08D3005A08D200640A0319CE2FCF2F46
:102F9C00D32F0130DA005A08E407640A0319D72F3B
:102FAC00D82FDD2F6408031DDC2FDD2FEB2F003015
:102FBC00D5000030D4000030D3000030D2006408BB
:102FCC00031DE92FEA2FEB2FE201641CEE2FEF2FEC
:102FDC00F12FD417F52F7F30DA005A08D405640886
:102FEC00DA0003105A0CD500E21FFD2FFE2FFF2F25
:042FFC00D5170800DD
:10399E000B34003400340034003400340034730827
:1039AE007204710470040319DD2CDE2CE02C8030BF
:1039BE00F3060800F00083160313981CE72CE82C7E
:1039CE00E22C70088312031399000800F100F00135
:1039DE003A3071020318F42CF52CFD2C30307102A4
:1039EE00031CFA2CFB2CFD2CF001F00A700C0800C5
:1039FE0001308316031385000130831203138500F3
:103A0E00831603139F179F151F159F141F108312E4
:103A1E0003131F1708007E088A007F0882000A160B
:103A2E008A1512250A168A158000840A04087D0656
:103A3E0003190034FF0A0319FE0A162DF001F101D5
:103A4E000130F0070318F10A0030F1077108803ACF
:103A5E00FF0080307F02031D362D13307002031CD1
:103A6E00392D3A2D272D0800803083120313E906D5
:103A7E006D08D5006C08D4006B08D3006A08D2001C
:103A8E006908D9006808D8006708D7006608D6000C
:103A9E000A168A11A8250A168A15831203135508C9
:103AAE00E9005408E8005308E7005208E600080051
:103ABE00F401F501701C642D652D6B2D7208F40751
:103ACE000318F50A7308F50701300310F20DF30D14
:103ADE00FF3E031D6C2D01300310F10CF00CFF3E68
:103AEE00031D732D70087104031D7E2D7F2D612D16
:103AFE007508F1007408F0000800FB01FC0176085F
:103B0E00770403198B2D8C2DC32DFD01FD0A9A2DE3
:103B1E0001300310F60DF70DFF3E031D902D013001
:103B2E00FA007A08FD07F71F9D2D9E2D8F2D01306F
:103B3E000310FB0DFC0DFF3E031D9F2D7708790230
:103B4E00031DAB2D76087802031CAE2DAF2DB62DBE
:103B5E007608F8027708031CF903F9027B1401308A
:103B6E000310F70CF60CFF3E031DB72D0130FD02BE
:103B7E00031DC22DC32D9E2D7C08F7007B08F60079
:103B8E00080000307005F80000307105F900803033
:103B9E007205FA007F307305FB007B087A04790406
:103BAE007804031DDB2DDC2DE42D0030F3000030F6
:103BBE00F2000030F1000030F00000307405F80023
:103BCE0000307505F90080307605FA007F307705F4
:103BDE00FB007B087A0479047804031DF72DF82D79
:103BEE00002E0030F7000030F6000030F5000030F7
:103BFE00F40077087306031D0E2E76087206031D59
:103C0E000E2E75087106031D0E2E7408700603190C
:103C1E00112E122E142E0310152E031408007308E5
:103C2E0072047104700403191D2E1E2E612EF901EB
:103C3E00F90A2E2E0130F8000310F00DF10DF20DE1
:103C4E00F30DF80B232E0130F8007808F907F31F57
:103C5E00312E322E212E73087702031D402E72084C
:103C6E007602031D402E71087502031D402E70084A
:103C7E007402031C432E442E522E7008F402710857
:103C8E00031C710FF5027208031C720FF602730803
:103C9E00031C730FF70201300310F30CF20CF10C3E
:103CAE00F00CFF3E031D532E0130F902031D602E52
:103CBE00612E322E7708F3007608F2007508F100B7
:103CCE007408F0000800F601F31F6E2E6F2E762E8C
:103CDE00F209F309F20A0319F30AF601F60AF11FC3
:103CEE00792E7A2E7F2EF009F109F00A0319F10AC6
:103CFE00700871040319842E852EB42EF501F50A71
:103D0E00932E01300310F00DF10DFF3E031D892E91
:103D1E000130F4007408F507F11F962E972E882EA9
:103D2E0071087302031D9D2E70087202031CA02ED3
:103D3E00A12EA72E7008F2027108031CF303F302E2
:103D4E0001300310F10CF00CFF3E031DA82E0130C4
:103D5E00F502031DB32EB42E972E76080319B82E36
:103D6E00B92EBE2EF209F309F20A0319F30A7308EB
:103D7E00F1007208F00008000030FC000030FB007B
:103D8E000030FA000030F9007308720471047004F8
:103D9E000319D22ED32E202FFD01FD0AE32E013062
:103DAE00F8000310F00DF10DF20DF30DF80BD82EF7
:103DBE000130F8007808FD07F31FE62EE72ED62E09
:103DCE000130F8000310F90DFA0DFB0DFC0DF80B88
:103DDE00E92E73087702031DFE2E72087602031D6C
:103DEE00FE2E71087502031DFE2E70087402031C50
:103DFE00012F022F112F7008F4027108031C710F8E
:103E0E00F5027208031C720FF6027308031C730F7F
:103E1E00F702791401300310F30CF20CF10CF00CD4
:103E2E00FF3E031D122F0130FD02031D1F2F202FF9
:103E3E00E72E7C08F3007B08F2007A08F10079087F
:103E4E00F000080083120313A101F81F2F2F302F4B
:103E5E00372FF709F809F70A0319F80AA101A10A81
:103E6E00FA1F3A2F3B2F442FF909FA09F90A0319C1
:103E7E00FA0A0130FB007B08A106A201A301770814
:103E8E00780403194B2F4C2F832FA001A00A5A2F11
:103E9E0001300310F70DF80DFF3E031D502F0130BA
:103EAE00FB007B08A007F81F5D2F5E2F4F2F013000
:103EBE000310A20DA30DFF3E031D5F2F78087A029B
:103ECE00031D6B2F77087902031C6E2F6F2F762F31
:103EDE007708F9027808031CFA03FA02221401305B
:103EEE000310F80CF70CFF3E031D772F0130A002D4
:103EFE00031D822F832F5E2F21080319872F882FF2
:103F0E008D2FA209A309A20A0319A30A2308F800F8
:103F1E002208F70008000A168A119E200A168A1532
:103F2E000A168A15FF240A168A1583120313EE0148
:103F3E00EF01913083160313A0000A168A114D214A
:103F4E000A168A15831203135B0883160313A40043
:103F5E00831203135A0883160313A3008312031349
:103F6E00590883160313A2008312031358088316ED
:103F7E000313A100C6300A128A11AE210A168A1541
:103F8E001A3083160313C5005E30C4006D30C300B3
:103F9E00C30BCF2FC40BCF2FC50BCF2FD62FEB2F8D
:103FAE00831203136E08C63E8400831300080A169C
:103FBE008A15E1240A168A15013083120313EE07BF
:103FCE000318EF0A0030EF07831203136F08803ACD
:103FDE00FF0080307F02031DF62F08306E02031C97
:103FEE00F92FFA2FD72F8316031398120A128A115C
:0A3FFE000028FF3FFF3FFF3FFF3F99
:02400E003A3F37
:00000001FF
